:1000000000308A00132A00000A108A100A118207A1
:1000100028340C34013406340A108A100A1182077D
:100020004C3449344E344534413400340A108A107B
:100030000A11820744344534523445344334483439
:10004000413400340A108A100A11820744344534BE
:10005000523445344334483441342B3400340A108C
:100060008A100A11820749345A34513455344934BC
:10007000453452344434413400340A108A100A1191
:10008000820749345A345134553449344534523452
:10009000443441342B3400340A108A100A11820788
:1000A000533441344C344934443441342034493499
:1000B0005A3451345534493445345234443441343B
:1000C00000340A108A100A118207533441344C3428
:1000D0004934443441342034443445345234453472
:1000E00043344834413400342330840083130008FF
:1000F000031988280130F800F701F70B7D28F80B69
:100100007C284A30F700F70B83288628800B7A2852
:1001100000342A0EF039F7000F3008057704880004
:10012000000008149328081000348810F03083165B
:100130008800831208150000081400000808080E43
:100140000F39AA0008100000081400000808080E63
:100150000F39A900081000308316880083122A0E78
:10016000F700F030F70577082904F8007808A900AF
:10017000A91B9628271C881027188814000008112E
:1001800000000810280EA9000F30A9052908AA00B0
:10019000892028080F39A900AA00892000340030DE
:1001A0008316880083128810081108100F30A300EE
:1001B00074200130A1002108033C031CE728033010
:1001C000AA0089200530A3007420A10ADB28023090
:1001D000AA008920A1012108033C031CF82821085A
:1001E0000420A200A7012208A8009520A10AEB285C
:1001F0008A110A121E2A240BFE2801294030A5006C
:100200000229A50101302302A50725088038A60090
:10021000A7012608A8009520003422080C3A0319EB
:100220001829063A03192029023A031926292B29ED
:10023000A7010130A80095200230A30074203129C5
:100240000130A3000230A400FB203129A7011030A7
:10025000A800952031290130A7002208A800952088
:10026000312900341230A202031C452922308400B7
:100270008313FC3080050310800C800C00080319E8
:10028000452943290000800B42290034851866293E
:10029000051966290C30A2000D210730A30001309A
:1002A000A400FB20A10121080C20A10AF700A20054
:1002B0000D2105302102031D5329851866290519D2
:1002C000662986150616061586145D29851CBD2926
:1002D0000519BD290C30A2000D210A30A300013000
:1002E000A400FB20A10121081620A10AF700A2000A
:1002F0000D2107302102031D7329851C932905193F
:1003000093290616861506153130F700F70B862956
:10031000892906110530A100A730A2003221A10BC6
:100320008C2986147D29851CBD29051DBD290C300D
:10033000A2000D210930A3000130A400FB20A1017F
:1003400021082220A10AF700A2000D210830210275
:10035000031DA029851CBD29051DBD290612861572
:10036000861406158530F700F70BB4290611C7303F
:10037000F700F70BB929BC29AA298518122A051DEF
:10038000122A0C30A2000D210130A300A400FB2092
:10039000A10121082F20A10AF700A2000D21093098
:1003A0002102031DC9298518E929051DE929061619
:1003B000861586143130F700F70BDC29DF2986100B
:1003C0000530A100A730A2003221A10BE2290615B9
:1003D000D329851C122A051D122A0C30A2000D21DA
:1003E0000130A300A400FB20A10121083D20A10AA7
:1003F000F700A2000D210A302102031DF529851CFA
:10040000122A051D122A0616861106158614853035
:10041000F700F70B092A8610C730F700F70B0E2AF2
:10042000112AFF290034840183131F3083058316AA
:100430001F149F141F159F118312CF281E3083167F
:1004400085008601073089008312861506168518F7
:100450004F2A05194F2A091D4F2A091C4F2A0C3013
:10046000A2000D210730A3000130A400FB20A10150
:1004700021080C20A10AF700A2000D21053021025D
:10048000031D382A85184F2A05194F2A091D4F2A9E
:10049000091C4F2A8615061606158614422A851C45
:1004A000B52A0519B52A091DB52A091CB52A0C302B
:1004B000A2000D210A30A3000130A400FB20A101FD
:1004C00021081620A10AF700A2000D210730210201
:1004D000031D602A851C822A0519822A091D822A89
:1004E000091C822A061686150615A630F700F70B9A
:1004F000772A00000611A630F700F70B7D2A0000CE
:1005000086146A2A851CB52A051DB52A091DB52A37
:10051000091CB52A0C30A2000D210930A3000130BE
:10052000A400FB20A10121082220A10AF700A200BB
:100530000D2108302102031D932A851CB52A051DB3
:10054000B52A091DB52A091CB52A061286150615F5
:10055000A630F700F70BAA2A00000611A630F70014
:10056000F70BB02A000086149D2A8518192B051D4B
:10057000192B091D192B091C192B0C30A2000D2158
:100580000130A300A400FB20A10121082F20A10A13
:10059000F700A2000D2109302102031DC52A85188C
:1005A000E72A051DE72A091DE72A091CE72A06167E
:1005B00086158614A630F700F70BDC2A000086109B
:1005C000A630F700F70BE22A00000615CF2A851C9B
:1005D000192B051D192B091D192B091C192B0C3062
:1005E000A2000D210130A300A400FB20A1012108DD
:1005F0003D20A10AF700A2000D210A302102031DAF
:10060000F72A851C192B051D192B091D192B091CEF
:10061000192B061686118614A630F700F70B0E2B41
:1006200000008610A630F700F70B142B000006150B
:10063000012B0918622B0C30A2000D210130A30000
:10064000A400FB20A10121084C20A10AF700A20070
:100650000D2110302102031D232B091D5E2B85184F
:10066000372B051D372B0616861586140615851C97
:100670004A2B051D4A2B061686118614A630F70054
:10068000F70B402B00008610A630F700F70B462B27
:100690000000061585185D2B05195D2B06128615C1
:1006A00086140615A630F700F70B542B0000061130
:1006B000A630F700F70B5A2B00002D2B0919622BDF
:1006C00046215E2B0919AC2B0C30A2000D21023003
:1006D000A3000130A400FB20A10121086120A10A90
:1006E000F700A2000D210E302102031D6D2B091C05
:1006F000A82B851C812B0519812B061686158614BF
:100700000615851C942B051D942B06128615861440
:100710000615A630F700F70B8B2B00000611A6304C
:10072000F700F70B912B00008518A72B0519A72BB5
:10073000061686118614A630F700F70B9D2B0000D5
:100740008610A630F700F70BA32B00000615772BB9
:0C0750000918AC2B4621A82B272A6300B7
:02400E00793FF8
:00000001FF
;PIC16F877
