:1000000000308A000D2A00000A108A100A118207A7
:1000100028340C34013406340A108A100A1182077D
:100020004C3449344E344534413400340A108A107B
:100030000A11820744344534523445344334483439
:10004000413400340A108A100A11820744344534BE
:10005000523445344334483441342B3400340A108C
:100060008A100A11820749345A34513455344934BC
:10007000453452344434413400340A108A100A1191
:10008000820749345A345134553449344534523452
:10009000443441342B3400340A108A100A11820788
:1000A000533441344C344934443441342034493499
:1000B0005A3451345534493445345234443441343B
:1000C00000340A108A100A118207533441344C3428
:1000D0004934443441342034443445345234453472
:1000E00043344834413400342330840083130008FF
:1000F000031988280130F800F701F70B7D28F80B69
:100100007C284A30F700F70B83288628800B7A2852
:1001100000342A0EF039F7000F3008057704880004
:10012000000008149328081000348810F03083165B
:100130008800831208150000081400000808080E43
:100140000F39AA0008100000081400000808080E63
:100150000F39A900081000308316880083122A0E78
:10016000F700F030F70577082904F8007808A900AF
:10017000A91B9628271C881027188814000008112E
:1001800000000810280EA9000F30A9052908AA00B0
:10019000892028080F39A900AA00892000340030DE
:1001A0008316880083128810081108100F30A300EE
:1001B00074200130A1002108033C031CE728033010
:1001C000AA0089200530A3007420A10ADB28023090
:1001D000AA008920A1012108033C031CF82821085A
:1001E0000420A200A7012208A8009520A10AEB285C
:1001F0008A110A12182A240BFE2801294030A50072
:100200000229A50101302302A50725088038A60090
:10021000A7012608A8009520003422080C3A0319EB
:100220001829063A03192029023A031926292B29ED
:10023000A7010130A80095200230A30074203129C5
:100240000130A3000230A400FB203129A7011030A7
:10025000A800952031290130A7002208A800952088
:10026000312900341230A202031C452922308400B7
:100270008313FC3080050310800C800C00080319E8
:10028000452943290000800B42290034851866293E
:10029000051966290C30A2000D210730A30001309A
:1002A000A400FB20A10121080C20A10AF700A20054
:1002B0000D2105302102031D5329851866290519D2
:1002C000662986150616061586145D29851CBA2929
:1002D0000519BA290C30A2000D210A30A300013003
:1002E000A400FB20A10121081620A10AF700A2000A
:1002F0000D2107302102031D7329851C9029051942
:1003000090290616861506156330F700F70B862927
:1003100089290611E930F700F70B8C2986147D290D
:10032000851CBA29051DBA290C30A2000D210930FF
:10033000A3000130A400FB20A10121082220A10A72
:10034000F700A2000D2108302102031D9D29851C04
:10035000BA29051DBA2906128615861406156330BA
:10036000F700F70BB129B4290611E930F700F70BB4
:10037000B729A72985180C2A051D0C2A0C30A200C4
:100380000D210130A300A400FB20A10121082F2092
:10039000A10AF700A2000D2109302102031DC62980
:1003A0008518E329051DE329061686158614633092
:1003B000F700F70BD929DC298610E930F700F70B95
:1003C000DF290615D029851C0C2A051D0C2A0C30A6
:1003D000A2000D210130A300A400FB20A1012108EF
:1003E0003D20A10AF700A2000D210A302102031DC1
:1003F000EF29851C0C2A051D0C2A061686110615E8
:1004000086146330F700F70B032A062A8610E930BA
:10041000F700F70B092AF9290034840183131F30F0
:10042000830583161F149F141F159F118312CF2855
:100430001E308316850086010730890083128615D9
:1004400006168518492A0519492A091D492A091C31
:10045000492A0C30A2000D210730A3000130A4006E
:10046000FB20A10121080C20A10AF700A2000D2108
:1004700005302102031D322A8518492A0519492A07
:10048000091D492A091C492A8615061606158614CF
:100490003C2A851CAD2A0519AD2A091DAD2A091C67
:1004A000AD2A0C30A2000D210A30A3000130A400B7
:1004B000FB20A10121081620A10AF700A2000D21AE
:1004C00007302102031D5A2A851C7B2A05197B2A25
:1004D000091D7B2A091C7B2A061686150615633022
:1004E000F700F70B712A742A0611E930F700F70BB1
:1004F000772A8614642A851CAD2A051DAD2A091D9C
:10050000AD2A091CAD2A0C30A2000D210930A30030
:100510000130A400FB20A10121082220A10AF7003C
:10052000A2000D2108302102031D8C2A851CAD2A52
:10053000051DAD2A091DAD2A091CAD2A0612861516
:1005400006156330F700F70BA32AA62A0611E93037
:10055000F700F70BA92A8614962A85180F2B051D7C
:100560000F2B091D0F2B091C0F2B0C30A2000D2186
:100570000130A300A400FB20A10121082F20A10A23
:10058000F700A2000D2109302102031DBD2A8518A4
:10059000DE2A051DDE2A091DDE2A091CDE2A0616B2
:1005A000861586146330F700F70BD42AD72A8610F5
:1005B000E930F700F70BDA2A0615C72A851C0F2B3E
:1005C000051D0F2B091D0F2B091C0F2B0C30A20032
:1005D0000D210130A300A400FB20A10121083D2032
:1005E000A10AF700A2000D210A302102031DEE2A04
:1005F000851C0F2B051D0F2B091D0F2B091C0F2B05
:100600000616861186146330F700F70B052B082BAE
:100610008610E930F700F70B0B2B0615F82A09189E
:10062000592B0C30A2000D210130A300A400FB20A7
:10063000A10121084C20A10AF700A2000D211030D1
:100640002102031D192B091D552B85182D2B051D66
:100650002D2B0616861586140615851C422B051DA6
:10066000422B0616861186144230F700F70B362B04
:10067000000086100430A100C530A2003221A10B79
:100680003C2B06158518542B0519542B061286157C
:10069000861406159530F700F70B4C2B4F2B0611DF
:1006A000B730F700F70B522B232B0919592B462192
:1006B000552B0919A42B0C30A2000D210230A300E8
:1006C0000130A400FB20A10121086120A10AF7004C
:1006D000A2000D210E302102031D642B091CA02B4A
:1006E000851C782B0519782B061686158614061599
:1006F000851C8D2B051D8D2B06128615861406155F
:100700004230F700F70B822B000006110430A100E5
:10071000C530A2003221A10B882B85189F2B05190B
:100720009F2B0616861186149530F700F70B962B33
:10073000992B8610B730F700F70B9C2B06156E2B04
:0C0740000918A42B4621A02B212A6300DD
:02400E00793FF8
:00000001FF
;PIC16F877
