:1000000000308A00EC2900000A108A100A118207C9
:1000100028340C34013406340A108A100A1182077D
:100020004C3449344E3445344134323400340A10AF
:100030008A100A118207443445345234453443341B
:100040004834413400340A108A100A1182074434BB
:100050004534523445344334483441342B3400342D
:100060000A108A100A11820749345A34513455341F
:100070004934453452344434413400340A108A102F
:100080000A11820749345A345134553449344534BD
:100090005234443441342B3400340A108A100A118B
:1000A00082074C3449344E344534413400340A100C
:1000B0008A100A118207533441344C344934443491
:1000C0004134203449345A34513455344934453458
:1000D00052344434413400340A108A100A11820721
:1000E000533441344C34493444344134203444345E
:1000F0004534523445344334483441340034233099
:10010000840083130008031993280130F800F701D5
:10011000F70B8828F80B87284A30F700F70B8E2852
:100120009128800B852800342A0EF039F7000F3013
:10013000080577048800000008149E280810003481
:100140008810F03083168800831208150000081408
:1001500000000808080E0F39AA0008100000081453
:1001600000000808080E0F39A90008100030831697
:10017000880083122A0EF700F030F705770829046B
:10018000F8007808A900A91BA128271C88102718A7
:1001900088140000081100000810280EA9000F3074
:1001A000A9052908AA00942028080F39A900AA0047
:1001B00094200034003083168800831288100811C0
:1001C00008100F30A3007F200130A1002108033C5C
:1001D000031CF2280330AA0094200530A3007F20DE
:1001E000A10AE6280230AA009420A1012108033CBC
:1001F000031C032921080420A200A7012208A8004B
:10020000A020A10AF6288A110A12F729240B09292D
:100210000C294030A5000D29A50101302302A507B6
:1002200025088038A600A7012608A800A0200034D1
:1002300022080C3A03192329063A03192B29023AFA
:10024000031931293629A7010130A800A020023066
:10025000A3007F203C290130A3000230A400062126
:100260003C29A7011030A800A0203C290130A7009C
:100270002208A800A0203C29003485185D29051912
:100280005D290C30A20018210730A3000130A40022
:100290000621A10121080C20A10AF700A2001821C3
:1002A00006302102031D4A2985185D2905195D299B
:1002B00086150616061586145429851CA5290519C8
:1002C000A5290C30A20018210A30A3000130A40097
:1002D0000621A10121081720A10AF700A200182178
:1002E00007302102031D6A29851C7B2905197B29FA
:1002F000061186147429851CA529051DA5290C3015
:10030000A20018210930A3000130A4000621A10198
:1003100021082320A10AF700A20018210830210299
:10032000031D8829851CA529051DA52906128615EA
:10033000861406158530F700F70B9C290611C73087
:10034000F700F70BA129A42992298518EB29051D8F
:10035000EB290C30A20018210130A300A4000621D3
:10036000A10121083020A10AF700A20018210930BC
:100370002102031DB1298518C229051DC229861035
:100380000615BB29851CEB29051DEB290C30A200A5
:1003900018210130A300A4000621A10121083E205C
:1003A000A10AF700A20018210A302102031DCE295C
:1003B000851CEB29051DEB290616861106158614EA
:1003C0008530F700F70BE2298610C730F700F70BEE
:1003D000E729EA29D8290034840183131F308305D3
:1003E00083161F149F141F159F118312DA281E30C5
:1003F000831685008601073089008312861506164C
:100400008518282A0519282A091D282A091C282A9E
:100410000C30A20018210730A3000130A4000621EF
:10042000A10121084D20A10AF700A20018210530E2
:100430002102031D112A8518282A0519282A091DB9
:10044000282A091C282A86150616061586141B2A32
:10045000851C802A0519802A091D802A091C802AEA
:100460000C30A20018210A30A3000130A40006219C
:10047000A10121081720A10AF700A20018210730C6
:100480002102031D392A851C4E2A05194E2A091DF1
:100490004E2A091C4E2A06118614432A851C802ADE
:1004A000051D802A091D802A091C802A0C30A20003
:1004B00018210930A3000130A4000621A101210860
:1004C0002320A10AF700A200182108302102031DF1
:1004D0005F2A851C802A051D802A091D802A091C87
:1004E000802A06128615861406158530F700F70B4C
:1004F000772A0611C730F700F70B7C2A7F2A692A72
:100500008518D62A051DD62A091DD62A091CD62AE1
:100510000C30A20018210130A300A4000621A10183
:1005200021083020A10AF700A20018210930210279
:10053000031D902A8518A52A051DA52A091DA52A8F
:10054000091CA52A861006159A2A851CD62A051D7F
:10055000D62A091DD62A091CD62A0C30A200182139
:100560000130A300A4000621A10121083E20A10A18
:10057000F700A20018210A302102031DB52A851CAC
:10058000D62A051DD62A091DD62A091CD62A0616E2
:100590008611061586148530F700F70BCD2A8610D4
:1005A000C730F700F70BD22AD52ABF2A0918092B22
:1005B0000C30A20018210130A300A4000621A101E3
:1005C00021085720A10AF700A200182110302102AB
:1005D000031DE02A091D052B8518F42A051DF42AA0
:1005E0000616861586140615851CFC2A051DFC2A90
:1005F00006168615861006158518042B0519042B7A
:100600000616861586140611EA2A0919092B3D21BA
:10061000052B09193D2B0C30A20018210230A30034
:100620000130A4000621A10121086C20A10AF700D5
:10063000A20018210E302102031D142B091C392B96
:10064000851C282B0519282B0616861586140615D9
:10065000851C302B051D302B0616861586140611B9
:100660008518382B0519382B0616861586100615A1
:0E0670001E2B09183D2B3D21392B002A63005B
:02400E00793FF8
:00000001FF
;PIC16F877
