:1000000000308A00D52800000A108A100A118207E1
:1000100028340C34013406340A108A100A1182077D
:100020005034523455344534423441340034233052
:1000300084008313000803192B280130F800F7010E
:10004000F70B2028F80B1F284A30F700F70B26285B
:100050002928800B1D2800342A0EF039F7000F30B4
:1000600008057704880000000814362808100034BA
:100070008810F030831688008312081500000814D9
:1000800000000808080E0F39AA0008100000081424
:1000900000000808080E0F39A90008100030831668
:1000A000880083122A0EF700F030F705770829043C
:1000B000F8007808A900A91B3928271C88102718E0
:1000C00088140000081100000810280EA9000F3045
:1000D000A9052908AA002C2028080F39A900AA0080
:1000E0002C200034003083168800831288100811F9
:1000F00008100F30A30017200130A1002108033C95
:10010000031C8A280330AA002C200530A3001720E6
:10011000A10A7E280230AA002C20A1012108033C5C
:10012000031C9B2821080420A200A7012208A80084
:100130003820A10A8E288A110A12E028240BA1284F
:10014000A4284030A500A528A50101302302A50759
:1001500025088038A600A7012608A800382000340A
:1001600022080C3A0319BB28063A0319C328023A9D
:100170000319C928CE28A7010130A8003820023071
:10018000A3001720D4280130A3000230A4009E2031
:10019000D428A7011030A8003820D4280130A700A7
:1001A0002208A8003820D4280034840183131F308B
:1001B000830583161F149F141F159F118312722825
:1001C000831686010C308312A200B0200130A300F8
:1001D000A4009E20A10121080C20A10AF700A20082
:1001E000B02006302102031DEB28831686011E3045
:1001F000831286000830A100FA30A3001720A10B5B
:10020000FC28831686011630831286000830A10070
:10021000FA30A3001720A10B0829831686010E309F
:10022000831286000830A100FA30A3001720A10B2A
:060230001429F52863000B
:02400E00793FF8
:00000001FF
;PIC16F877
