:1000000000308A0004280000840183131F30830518
:1000100083161F149F141F159F110330890086013A
:10002000831209181B2889181B28831686011E3085
:10003000831286001128091C252889182528831673
:1000400086011C30831286001B28091C2F28891C5E
:100050002F28831686011C30831286002528091854
:100060003928891C392883168601143083128600AA
:100070002F28091C4328891C432883168601143025
:0A008000831286003928112863005E
:02400E00793FF8
:00000001FF
;PIC16F877
